:020000040800F2
:1000000000070020910100086F190008CB170008B5
:100010006D19000865050008B71A00080000000007
:10002000000000000000000000000000731900083C
:100030006705000800000000711900087519000824
:10004000AB010008AB010008AB010008AB010008E0
:10005000AB010008AB010008AB010008AB010008D0
:10006000AB010008AB010008AB010008AB010008C0
:10007000AB010008AB010008AB010008AB010008B0
:10008000AB010008AB010008AB010008AB010008A0
:10009000AB010008AB010008AB010008AB01000890
:1000A000AB010008AB010008AB010008AB01000880
:1000B000E5190008AB01000800000000AB010008D2
:1000C000AB0100080000000000000000AB010008C8
:1000D00000000000AB010008AB01000800000000B8
:1000E000AB010008AB010008AB01000800F002F80A
:1000F00000F03FF80AA090E8000C82448344AAF183
:100100000107DA4501D100F034F8AFF2090EBAE880
:100110000F0013F0010F18BFFB1A43F0010318473B
:100120002825000048250000103A24BF78C878C16F
:10013000FAD8520724BF30C830C144BF04680C60ED
:10014000704700000023002400250026103A28BF35
:1001500078C1FBD8520728BF30C148BF0B60704739
:10016000642900F07D80002070471FB51FBD10B5C9
:1001700010BD00F052F91146FFF7F7FF01F08AFDBC
:1001800000F070F903B4FFF7F2FF03BC00F078F958
:100190000948804709480047FEE7FEE7FEE7FEE71B
:1001A000FEE7FEE7FEE7FEE7FEE7FEE70448054957
:1001B000054A064B70470000E1190008ED000008F1
:1001C00000010020000700200003002000030020A1
:1001D0000FB41CB5074B06AA7B44694600900598EE
:1001E00000F003F90020694600F012F91CBC5DF82C
:1001F00014FB0000350200002DE9F0410E460446D4
:10020000002020622046E168884730B3252805D0C9
:10021000D4E901219047206A401CF2E7E1682046BA
:1002200000278847050018D0A5F14100192802D8F9
:1002300020354FF400673246294620462760FFF7F5
:100240008FFF40B1012804D0F61D26F007060836BE
:10025000D8E7361DD6E72846DAE7206ABDE8F08100
:100260002DE9F0410646002410687529314616A58F
:1002700010D0AFF30080002802DA404213A507E057
:1002800031688A0701D512A502E0490704D511A5F6
:10029000012401E0AFF3008000210A2206F12407C7
:1002A00009E0B0FBF2FCB0FBF2F302FB1C003030C3
:1002B00078541846491C0028F3D123462A46304674
:1002C000BDE8F04100F032B8000000002D00000051
:1002D0002B000000200000004FF0000200B5134684
:1002E00094469646203922BFA0E80C50A0E80C5056
:1002F000B1F12001BFF4F7AF090728BFA0E80C5007
:1003000048BF0CC05DF804EB890028BF40F8042BFF
:1003100008BF704748BF20F8022B11F0804F18BF6C
:1003200000F8012B70477047704770472DE9F04780
:100330000D4699469246044600F124080168880655
:1003400004D5E06921F01001216000E00120A842FD
:1003500001DD471B00E00027A1697A1902EB0900C3
:10036000081AA0612078C00602D42046AFF30080AE
:10037000002608E0D4E901211AF806009047206A17
:10038000401C761C20624E45F4DB2078C0060AD55E
:100390002046AFF3008006E0D4E9012130209047E9
:1003A000206A401C2062381EA7F10107F4DC07E038
:1003B000D4E9012118F805009047206A401C20620A
:1003C000281EA5F10105F3DC2046AFF3008020785C
:1003D000000602D50220BDE8F0870120FBE70000FF
:1003E00001694A1C02610878704700B58FB0CDE9F9
:1003F00001310021059105497944CDE903101146E9
:100400006846FFF7F9FE0FB000BD0000E5FFFFFFF3
:100410000A6802F8010B0A607047754600F02CF874
:10042000AE4605006946534620F00700854618B0E1
:1004300020B5FFF7BBFEBDE820404FF000064FF0AF
:1004400000074FF000084FF0000B21F00701AC4609
:10045000ACE8C009ACE8C009ACE8C009ACE8C00928
:100460008D46704710B50446AFF300802046BDE8C6
:100470001040FFF787BE000000487047A000002032
:1004800001491820ABBEFEE72600020070470000BD
:1004900070B5044600688168C943C90717D18168EF
:1004A00021F00101816000F0ABFB05460AE000BFCE
:1004B00000F0A6FB401B022804D920688068C043D6
:1004C000C00706D020688068C043C007F0D0002075
:1004D00070BDA06A40F01000A062E06A40F0010028
:1004E000E062012070BD0000F8B5002604460096C9
:1004F00000688168C943C9072DD0816841F00101B6
:100500008160164816490068B0FBF1F000E0401E1B
:1005100000900028FBD100F073FB054616E000BFF9
:1005200000F06EFB401B022810D920688068C04391
:10053000C0070BD0A06A40F01000A062E06A40F053
:100540000100E06284F824600120F8BD2068806822
:10055000C043C007E4D10020F8BD00001400002013
:1005600040420F00FEE77047F8B50024009490F871
:1005700024202546012A12D0012280F824204A682E
:100580001F23072A0DD20668776B521E02EB8202E8
:1005900093409F430B6893401F43776319E0022009
:1005A000F8BD06680D2A0AD2376BD21F02EB820211
:1005B00093409F430B6893401F43376309E0F76AFA
:1005C0000D3A02EB820293409F430B6893401F4316
:1005D000F7620A68072306680A2A0AD3F7680A3A04
:1005E00002EB420293409F438B6893401F43F760A6
:1005F00008E0376902EB420293409F438B689340C7
:100600001F4337610A68102A01D0112A20D1124BEA
:1006100002689A4217D193681B0219D4936843F475
:10062000000393600968102912D10C490C4A09682B
:10063000B1FBF2F101EB8101490000E0491E00919C
:100640000029FBD104E0816A41F02001816201248C
:1006500080F824502046F8BD0024014014000020FA
:1006600040420F000068C06C704700002DE9F04167
:100670004FF0000704003D467ED0A06A002628B94E
:10068000E66284F82460204600F07EF82046FFF7FA
:10069000FFFEA16AC90600D420B1A06A40F0100094
:1006A000A06269E0A16A21F4885141F00201A162CF
:1006B0006268E169237B0A4347EA43010A43A16870
:1006C0004FF48077B94209D0012907D05FF00001CB
:1006D00094F814C0BCF1010F02D00AE03946F7E7E4
:1006E000F3B1A36A43F02003A362E36A43F001037A
:1006F000E3622368D3F804C02CF4694C4CEA010C83
:10070000C3F804C021688B68DFF870C003EA0C03EB
:1007100013438B60A168B9420BD0012909D00CE0CA
:10072000DFF85CC0A3690CEB43330B4343F4006177
:10073000DFE7218A0D05A5F580152168CB6A23F432
:1007400070032B43CB62216889680E4B194091429C
:1007500008D1E662A16A21F0020141F00101A16223
:10076000BDE8F081A06A20F0020040F01000A06215
:10077000E06A40F00100E0620120F1E7FDF7E1FFEF
:1007800000E0FFFFFE0E1FFF00B585B000210091C5
:1007900001910291039100680E49884218D10E48D8
:1007A000816941F400718161816901F400710491F2
:1007B000816941F0040181618069694600F00400AB
:1007C00004900220009003200190044800F032F9C8
:1007D00005B000BD002401400010024000080140A7
:1007E0002DE9F84300270D460446009700F008FA6B
:1007F000804620688168C90508D5A06A40F02000BD
:10080000A06284F824700120BDE8F8834168C9051E
:1008100003D4C06A10F4700F2AD0022000F08EFAC0
:100820003B490968B1FBF0F62068036939490B427E
:100830004FEA61014FEAA1121FD1C3684FEA611C60
:1008400013EA0C0F19D103690B4225D1C06810427D
:1008500022D1142023E0681C0AD02DB100F0D0F979
:10086000A0EB0800A84203D920680068800725D5BE
:10087000206800688007EED52DE003690B4202D1A5
:10088000C168114206D0026923490A4206D1C068F4
:10089000084203D1542002E0292000E0FC20464316
:1008A000009816E0681C11D02DB100F0A9F9A0EB5A
:1008B0000800A8420AD90098B04207D2A06A40F0C6
:1008C0000400A06284F8247003209DE70098401C77
:1008D0000090B042E6D321686FF012000860A06A71
:1008E00040F40070A06220688068C0F3424007288E
:1008F0000CD1207B50B9A06A20F48070A062A06A5D
:10090000C00403D4A06A40F00100A06200207BE78D
:1009100014000020244992244992240070B5044612
:1009200090F8240001280DD0012084F824002046EE
:10093000FFF7DAFD02004FF0000005D084F8240034
:10094000104670BD022070BDA16A40F20123994398
:1009500041F48071A1621F4D23681F49AB4218D139
:100960000E6816F4702F14D0A66A46F48016A6629C
:100970000E68760505D5A66A26F4005646F480561C
:10098000A662A66AF6040AD5E66A26F00606E662BC
:1009900006E0A66A26F48016A6625E68E9E7E062D1
:1009A00084F824006FF00200186020688368C3F3A5
:1009B0004243072B05D1A84208D1096811F4702FD2
:1009C00004D0816841F480118160B9E7816841F405
:1009D000A001F9E7002801400424014010B50446B5
:1009E00090F82400012807D0012084F82400204634
:1009F000FFF74EFD10B107E0022010BDA16A21F4FF
:100A0000885141F00101A162002184F8241010BD39
:100A100070B5044600F0F4F80546601C02D00448A6
:100A20000078044400F0ECF8401BA042FAD370BDFB
:100A3000080000202DE9F84FDFF89C910024A9F16F
:100A4000040B23460F2709F1040AABF1040EBBE0A7
:100A50000125A5402A40AA4276D1DFF880C14E6820
:100A6000A6EB0C0866452BD00DDC032E34D005DC3C
:100A700036B3012E19D0022E2FD11BE0112E16D025
:100A8000122E2AD119E0B8F5881F19D006DCB8F566
:100A9000803F15D0B8F5801F1FD111E0B8F5001FB9
:100AA0000ED0B8F5041F18D10AE0CB6815E0CB686A
:100AB0001B1D12E0CB6808330FE0CB680C330CE051
:100AC0008B682BB1012B4FF0080303D0456104E084
:100AD000042302E0056100E00023FF2A01D8064656
:100AE00001E000F104064FEA840501D9A5F12005D3
:100AF000D6F8008007FA05FC28EA0C0803FA05F589
:100B000048EA0508C6F800804D68ED005BD5344D15
:100B1000AE6946F00106AE61AD6924F0030605F04A
:100B2000010500952F4D06EB050CDCF80850A607D3
:100B3000360F07FA06F825EA0805DFF8AC804045CD
:100B400003D14FF0000810E03DE0DFF8A080404501
:100B500002D14FF0010808E0DFF89480404502D14F
:100B60004FF0020801E04FF0030808FA06F848EADF
:100B70000508CCF808804D68D9F80060ED024D46B4
:100B800001D5164300E096432E604D68DAF8006008
:100B9000AD02554601D5164300E096432E604D68E0
:100BA000DBF80060AD035D4601D5164300E09643D7
:100BB0002E604D68DEF80060ED03754601D51643E2
:100BC00000E096432E60641C0A6832FA04F57FF454
:100BD0003FAFBDE8F88F000008040140000011108D
:100BE000001002400000014000080140000C0140DC
:100BF000001001400AB1016170470904FBE70000E1
:100C000001488068704700000800002002488168A1
:100C1000027811448160704708000020074810B531
:100C2000016841F010010160032000F075F80F2009
:100C300000F006F800F024F8002010BD002002406B
:100C400070B50D4D04464FF47A712878B1FBF0F081
:100C50000A490968B1FBF0F000F094FB48B9102C88
:100C600007D200222146501E00F036F800206C60AA
:100C700070BD012070BD000008000020140000209D
:100C80000C4808B5816941F001018161816901F079
:100C900001010091C16941F08051C161C06900F05A
:100CA000805000900448416821F0E06141F080618B
:100CB000416008BD0010024000000140002809DB2F
:100CC00000F01F02012191404009800000F1E02066
:100CD000C0F8001170470000F0B40E4B1B680C46C2
:100CE000C3F30223C3F10705042D00D90425191D00
:100CF000072901D2002300E0DB1E012606FA05F1D8
:100D0000491E214099409E40761E16403143F0BC5A
:100D100000F0D2BE0CED00E0064900F007020868C2
:100D20004FF6FF03184040EA0220034A10430860D0
:100D3000704700000CED00E00000FA0510B5014618
:100D40000020234C012922D0022939D010291DD19D
:100D500061682268D20119D51E48C1F38342C903D4
:100D6000805C0AD561681B4AC1F34041921E515C08
:100D7000194AB2FBF1F1484301E018494843616860
:100D8000490203D440000321B0FBF1F010BD226AF8
:100D9000C2F30121012903D1920701D5C80310BD77
:100DA000022905D1626A920702D549F6404010BD7A
:100DB0000329FCD121688903F9D54FF2244010BDE5
:100DC00000F01AF96168C1F38131491C4900DBE781
:100DD000001002402026000800127A0000093D00A1
:100DE0002DE9F84305460078354CC00754D0E0693A
:100DF0000026C00008D4E06940F08050E061E0695E
:100E0000012600F0805000902E480168C90512D4D8
:100E10000168804641F480710160FFF7F1FE0746EA
:100E200005E000BFFFF7ECFEC01B642823D8D8F80C
:100E30000000C005F6D5206A10F4407021D0A988C2
:100E400001F4407181421CD0206A1F49012220F424
:100E500040700A6000220A602062C00711D0FFF7CC
:100E6000CFFE074641F2883808E000BFFFF7C8FE12
:100E7000C11B414502D90320BDE8F883206A8007E1
:100E8000F4D5206A696820F44070084320621EB1DE
:100E9000E06920F08050E0612878800705D560681F
:100EA000A96820F44040084360602878C00605D552
:100EB0006068E96820F48000084360600020DBE798
:100EC0000010024000700040400442422DE9F0470B
:100ED0000F46050061D0434E306800F00700B8426D
:100EE00009D2306820F0070038433060306800F0E5
:100EF0000700B84251D128683B4C810712D5400702
:100F000003D5606840F4E06060602878000703D58E
:100F1000606840F4605060606068A96820F0F0008C
:100F2000084360602878C00728D06868012810D07E
:100F30002168022810D0890700292EDA616821F083
:100F4000030101436160FFF75BFE804641F288398F
:100F50000DE021688903EFE78901EDE7FFF750FE17
:100F6000A0EB0801494502D90320BDE8F08760687D
:100F7000696800F00C00B0EB810FEFD1306800F031
:100F80000700B8420BD9306820F0070038433060C2
:100F9000306800F00700B84201D00120E5E728786A
:100FA000400705D56068E96820F4E06008436060A8
:100FB0002878000706D56068296920F4605040EA67
:100FC000C100606000F028F86168084AC1F30311AD
:100FD000515CC8400649086006480068FFF730FECB
:100FE0000020C2E700200240001002403026000826
:100FF000140000200C0000200448054900684968DE
:10100000044AC1F3C221515CC8407047140000205B
:1010100000100240402600080E4A51680E4801F0B8
:101020000C03042B11D0082B0FD10C48C1F38343C0
:10103000C903C05C0AD55168084AC1F34041921EF9
:10104000515C054A5043B0FBF1F0704704494843F6
:10105000704700000010024000127A000E260008BF
:1010600000093D002DE9F84F040070D02078C04DF4
:10107000C00749D06868C0F38100012807D06868BC
:10108000C0F38100022809D16868C00306D528682A
:10109000800339D560680028E7D035E06068B0F596
:1010A000803F0BD010B1B0F5A02F11D0286820F4EC
:1010B00080302860286820F4802002E0286840F40E
:1010C00080302860606890B1FFF79AFD06460AE01C
:1010D000286840F480202860F0E700BFFFF790FD0B
:1010E000801B642873D828688003F7D50CE0FFF7CD
:1010F00087FD064605E000BFFFF782FD801B6428E0
:10110000F0D828688003F7D420789A4E80074FF0F3
:1011100001094FF0000839D5686810F00C0F07D0AE
:101120006868C0F38100022809D16868C00306D44A
:101130002868800714D52069012808D110E02069AB
:10114000B0B1C6F80090FFF75BFD074605E00AE185
:10115000FFF756FDC01B0228C4D828688007F7D5C2
:101160002868616920F0F80040EAC10028600DE0BD
:10117000C6F80080FFF744FD074604E0FFF740FD96
:10118000C01B022823D828688007F7D420780007DE
:101190002CD57948A169D9B1C0F80090FFF730FD8E
:1011A000074604E0FFF72CFDC01B02280FD8686A31
:1011B0008007F7D571484FF4FA510068B0FBF1F0A1
:1011C000009000BF0098411E0091FAD20EE080E02E
:1011D000C0F80080FFF714FD074604E0FFF710FD9C
:1011E000C01B022875D8686A8007F7D420784007AA
:1011F00060D5E8690027C00008D4E86940F0805055
:10120000E861E869012700F0805000905C480168BF
:10121000C90513D40168834641F480710160FFF76A
:10122000EFFC824606E000BFFFF7EAFCA0EB0A00F5
:1012300064284ED8DBF80000C005F5D5E068012829
:101240000AD008B1052813D0286A20F001002862CE
:10125000286A20F0040002E0286A40F001002862B9
:10126000E06841F2883B98B1FFF7CAFC82460BE088
:10127000286A40F004002862EEE700BFFFF7C0FCD8
:10128000A0EB0A0159455AD8286A8007F6D50CE028
:10129000FFF7B6FC824605E0FFF7B2FCA0EB0A01BF
:1012A00059454CD8286A8007F6D41FB1E86920F068
:1012B0008050E861E06988B36968C1F3810102295F
:1012C00044D00228C6F8608004D0FFF799FC044699
:1012D00038E034E0FFF794FC074604E0FFF790FCA9
:1012E000C01B02282BD828688001F7D4206AB0F5EB
:1012F000803F05D16868A16820F400300843686029
:10130000D4E908010843696821F47411084368604E
:10131000C6F86090FFF774FC044606E025E000BFC5
:10132000FFF76EFC001B022809D828688001F7D55A
:101330001BE000BFFFF764FC001B022802D903205A
:10134000BDE8F88F28688001F4D40EE00128F7D0BA
:101350006868226A00F48031914204D1616A00F425
:101360007010884201D00120EAE70020E8E7000081
:10137000001002400000424280044242140000205B
:101380000070004010B5401EB0F1807F01D30120F5
:1013900010BD4FF0E02460610F21601700F08CFB5E
:1013A0000020A06107202061002010BD7047704719
:1013B00070B590F83C20012A23D0012480F83C40ED
:1013C000022280F83D2003685A689D6822F070066A
:1013D0000A6832435A600C4B02689A4205D0B2F157
:1013E000804F02D0094B9A4204D1496825F080030E
:1013F0001943916080F83D40002180F83C10084678
:1014000070BD022070BD0000002C014000040040AF
:1014100010B5040003D094F83D0010B107E001209E
:1014200010BD002084F83C00204600F01FF8022088
:1014300084F83D00211D206800F0DAFA012084F8CC
:10144000460084F83E0084F83F0084F8400084F8A9
:10145000410084F8420084F8430084F8440084F892
:10146000450084F83D00002010BD000008B500686C
:10147000B0F1804F12D10A48C16941F00101C16148
:10148000C069002200F00100009011461C20FFF707
:1014900023FCBDE808401C20FFF710BC08BD00007D
:1014A0000010024090F83D10012901D00120704742
:1014B000022180F83D100168CA6842F00102CA604A
:1014C00000680A49884205D0B0F1804F02D008492F
:1014D000884204D1816801F00701062903D0016820
:1014E00041F001010160002070470000002C014024
:1014F0000004004070B5044690F83C000025012827
:1015000017D0012684F83C60022084F83D00206852
:10151000826822F0770222F47F42826008685028B5
:1015200038D00DDC20284FD005DC90B3102811D125
:101530004AE0022070BD302846D040280AD13BE066
:1015400060282FD070280DD0B0F5805F03D0B0F5A3
:10155000005F12D0012584F83D60002084F83C0033
:10156000284670BDCB68D1E90121206800F06EFAF1
:101570002068816841F0770109E0CB68D1E9012159
:10158000206800F063FA2068816841F4804181603E
:10159000E1E719E0CA684968206800F069FA50215B
:1015A000206806E0CA684968206800F072FA602185
:1015B000206800F055FACEE7CA684968206800F054
:1015C00057FA40212068F4E7226801461046F0E708
:1015D000704770B50446006801694FF00005C943C3
:1015E000890715D4C168C943890711D4E91E01616F
:1015F00001202077206880698007204602D0FFF70D
:10160000E7FF04E000F098F8204600F096F8257710
:1016100020680169C943490717D4C168C94349070C
:1016200013D46FF0040101610220207720688069E3
:1016300010F4407F204602D0FFF7CAFF04E000F01C
:101640007BF8204600F079F8257720680169C943C6
:10165000090716D4C168C943090712D46FF00801FD
:101660000161042020772068C0698007204602D0ED
:10167000FFF7AEFF04E000F05FF8204600F05DF8F1
:10168000257720680169C943C90617D4C168C943D1
:10169000C90613D46FF0100101610820207720687B
:1016A000C06910F4407F204602D0FFF791FF04E0AC
:1016B00000F042F8204600F040F8257720680169E4
:1016C000C943C90708D1C168C943C90704D1891EE4
:1016D0000161204600F032F820680169C94309061B
:1016E00009D4C168C943090605D46FF080010161BE
:1016F0002046FFF75BFE20680169C943490609D40B
:10170000C168C943490605D46FF040010161204614
:1017100000F05AF820680169C94389060BD4C168F2
:10172000C943890607D46FF0200101612046BDE856
:101730007040FFF73CBE70BD7047704710B51A4847
:10174000FFF7ECF805211848FFF74AF8174CB8B92D
:101750001548FEF787FF00F0F7FC0022144B00F05D
:1017600007FD0022134B00F097FB134A134B00F0C8
:10177000FFFC0022124B00F0E7FA00F0B3FA206001
:101780000948FFF72BF9206800F0DAFE014662688D
:101790000C48914201DD012200E00022BDE810402A
:1017A0002021FFF727BA00002800002000000020B9
:1017B00000407F4000FEAF40BE9F1A2FDD24034053
:1017C0000000E03F000801407047FEE710B50B48FD
:1017D000FFF768FE00F084F9002109A2084600F036
:1017E000BFF94FF47A70FFF713F900F075F9002193
:1017F000BDE8104006A2084600F0B2B9580000202B
:10180000556369746176616E6A652E2E2E00000044
:101810004750552054656D703A2000003EB50024B5
:1018200010480094019402940D49846001600125E0
:101830000573047505614FF460214460C161FEF7D2
:1018400015FF08B172B6FEE70095CDE9015469466F
:101850000448FEF789FE002801D072B6FEE73EBDBF
:1018600000240140280000202DE9F04385B0002429
:1018700021480094019402940394816941F020016D
:101880008161816901F020010491816941F00401C5
:101890008161816901F004010491816941F00801CD
:1018A00081618069DFF8548000F008000490002214
:1018B00020214046FFF79EF9DFF844904FF47C4723
:1018C000002239464846FFF795F9202001250226D7
:1018D000CDE90005CDE9024669464046FFF7AAF882
:1018E00000970396CDE9015469464846FFF7A2F8F0
:1018F00005B0BDE8F0830000001002400008014080
:10190000000C014010B586B00024174800940194E3
:101910000294039404944FF08041059401604FF4C5
:101920004871C0E901144FF47A71C0E9031484616D
:10193000FFF76EFD08B172B6FEE74FF480500090DD
:1019400069460948FFF7D6FD08B172B6FEE7049470
:1019500004A905480594FFF72BFD002801D072B6B5
:10196000FEE706B010BD000058000020FEE7FEE7CD
:1019700070477047FFF74AB930B593B028216846E1
:10198000FEF7AAFC14210AA8FEF7A6FC00240120F9
:101990000F94022504900095102011940590109446
:1019A000129407946846FFF75DFB08B172B6FEE734
:1019B0000F20CDE90A040C940D9400210AA80E947E
:1019C000FFF784FA08B172B6FEE70FA80F951194DD
:1019D000FFF706FA002801D072B6FEE713B030BD5B
:1019E000704700000148FFF7F4BD000058000020D8
:1019F00070B50268134B144C4FF08046984203D0E8
:101A0000B04201D0A04203D122F070054A682A43B7
:101A1000984203D0B04201D0A04203D122F44074D6
:101A2000CA6822434C6922F08002224302608A681D
:101A3000C2620A688262984201D109690163012188
:101A4000416170BD002C01400004004010B5846865
:101A500042EA032224F47F440A432243826010BDF9
:101A6000826822F070020A4342F0070181607047E9
:101A700010B5036A046A24F001040462846924F046
:101A8000F00444EA021423F00A020A438461026269
:101A900010BD10B5036A046A24F01004046284695E
:101AA00023F0A00324F4704444EA023243EA011113
:101AB0008261016210BDFEE70907090E002804DB00
:101AC00000F1E02080F80014704700F00F0000F1F2
:101AD000E02080F8141D70470121002000F060B85C
:101AE00070B51E20FEF794FF1C4C00224FF480516D
:101AF0002046FFF77FF8012251032046FFF77AF8CE
:101B000000224FF480412046FFF774F800224FF482
:101B100000412046FFF76EF8002221152046FFF70E
:101B200069F80122D50229462046FFF763F8002212
:101B300029462046FFF75EF82821002000F030F803
:101B40000C21002000F02CF80621002000F028F8DD
:101B5000BDE870400121002000F022B8000C0140D7
:101B600010B5144630B1012806D0022806D003284B
:101B700011D105E0803104E0C03102E0903100E095
:101B8000D031C9B2002000F00BF804E0C1B201204E
:101B900000F006F8641C20780028F7D110BD000082
:101BA0002DE9F04706460C460220FEF731FF384D7E
:101BB0004FF480610EB1012200E000222846FFF7B9
:101BC00019F820064FF4004701D5012200E0002259
:101BD00039462846FFF70EF860064FF4804801D5D5
:101BE000012200E0002241462846FFF703F8A00644
:101BF0004FF4005901D5012200E000224946284651
:101C0000FEF7F8FFE0064FF4805A01D5012200E00C
:101C1000002251462846FEF7EDFF0122D60231464A
:101C20002846FEF7E7FF002231462846FEF7E2FF8E
:101C3000200701D5012200E0002239462846FEF7A0
:101C4000D9FF600701D5012200E000224146284665
:101C5000FEF7D0FFA00701D5012200E0002249468F
:101C60002846FEF7C7FFE00701D0012200E000226E
:101C700051462846FEF7BEFF012231462846FEF7B0
:101C8000B9FF31462846BDE8F0470022FEF7B2BF53
:101C9000000C0140FEF7C2FFFFF76EFEFFF7E4FD08
:101CA000FFF7BCFDFFF72EFE0A48FFF7FBFBFFF72F
:101CB0008DFD094C206800F043FC0246054807A151
:101CC0004038FEF785FA034A0B21403A0020FFF71F
:101CD00047FFEFE7580000200000002025642E3069
:101CE0004320000021F00042A2F16052B2F5801FB3
:101CF00001F0004328BFD2F17F6C0BD95FEA001CD2
:101D000043EAC20242EB507018BF704728BF20F070
:101D100001007047B2F5801FBCBF184670474FEAFC
:101D2000410C1CF5001F02D2084600F06ABC70B5D9
:101D300000F0C8FA00000089FFF7F6BF4FF000403E
:101D4000A0F580007047000010B591EA030F48BF6E
:101D500083F0004300F11283841A71EB030C05D267
:101D6000121943EB0C03001B61EB0C01DFF824E1BB
:101D70004FEA1154A4EB135C1EEA430F18BF9EEA0E
:101D8000445F73D023EA0E03DCF1200E21EA0451F4
:101D900043F4801332D322FA0CFE10EB0E0023FA28
:101DA0000CFE41EB0E01CCF1200E03FA0EFE10EBFF
:101DB0000E0051F10001B1F5801FCCF1200E32D29E
:101DC00001EB045112FA0EF2BDE8104058BF704703
:101DD000401C38BF5FEA420218BF7047002814BF9A
:101DE00020F0010041F100014FEA410313F5001F0B
:101DF00038BF7047A1F1C04100F0B2BA012A43EBED
:101E00000302ACF1200CDCF11F0E32BF4FF0000ECC
:101E100023FA0CF310EB030041EB0451B4EB115F18
:101E2000D0D0A1EB045101F5801149085FEA3000E0
:101E300001EB04510ED350F1000038BF12FA0EFE30
:101E400008D1BDE81040C9E7401C38BF5FEA420234
:101E5000CAD1C3E7BDE810404FEA410313F5001FA4
:101E600038BF7047A1F1C04100F07ABA9EEA445FE2
:101E700008D011EA5E0FBDE8104004BF01F0004138
:101E800000207047BDE8104070B500F01BFA00BF9D
:101E900064FBBE3E0000E0FF2DE9C04130B4DFF836
:101EA000A0C23CEA111418BF3CEA131400F0EC8005
:101EB00081EA03051CEA111444EAD57418BF1CEA30
:101EC000131500F0C780A4EB05044FF0004545EA68
:101ED000C12145EAC32341EA505143EA525304F178
:101EE0007F74994204F500344FEAC0204FEAC222C1
:101EF00008BF904200F09C804FEA13650FF2401635
:101F0000765D4FEA134506FB05F7C7F1807706FBC0
:101F100007F74FEAD737A7FB03687642C8F5803842
:101F2000A7FB06CE38BFA8F1010807FB08E64FF073
:101F3000000EA6FB028CE6FB03CEDCF1000CCEF11A
:101F4000004E38BFAEF1010EA6FB0C584FF0000753
:101F50004FF00005E6FB0E87A1FB08C6A0FB07CEED
:101F600016EB0E0645F10005E1FB076515F1E04EA5
:101F70007EBFA4F580345FEA46066D4116F1800706
:101F800045F100054FEA17274FEA066647EA05675D
:101F9000A6F1DE46B6F1805F4FEA15251FD9384617
:101FA00024F0010C05EBC471BCF1FE6F01EB0C11C8
:101FB00002D8F0BCBDE8008124425CBF01F5801E60
:101FC0009EEAC47F02D4F0BCBDE80081244238D42C
:101FD000F0BCA1F1C041BDE8004100F0C1B94FEA39
:101FE000D22242EA43524FEAD323A7FB02864FEAAA
:101FF000D02040EA415007FB03661EEA0E0F4FEA6D
:10200000D12105FB026658BFA6EB0056B6EB005681
:102010004FEA520E4EEAC37E18EB0E0E56EB530EED
:10202000BDD518EB02085E417F1C55F10005B6E7EF
:102030004FF480154FF000074FF000064FF00008F6
:10204000ADE7F0BC4FF0000001F1C04101F00041EC
:10205000BDE8008111EA0C1F0CEA131500D00CE05A
:1020600013EA0C1F00F025804FF00000F0BC81EA5D
:10207000030101F00041BDE80081F0BCBDE8004172
:1020800081EA030100F06CB9F0BCBDE8004170B515
:1020900000F018F9097EFC3E00F007B881EA030160
:1020A0004FF0000001F00041704781EA030100F0A9
:1020B00057B9F0BCBDE800414FF00000214970471E
:1020C000FFFDFBF9F7F5F4F2F0EEEDEBE9E8E6E4FD
:1020D000E3E1E0DEDDDBDAD8D7D5D4D3D1D0CFCD84
:1020E000CCCBCAC8C7C6C5C4C2C1C0BFBEBDBCBBBD
:1020F000BAB9B8B7B6B5B4B3B2B1B0AFAEADACABB8
:10210000AAA9A8A8A7A6A5A4A3A3A2A1A09F9F9E91
:102110009D9C9C9B9A999998979796959594939343
:10212000929191908F8F8E8E8D8C8C8B8B8A8989DA
:10213000888887878685858484838382828181805D
:102140000000FF070000F87FB0FA80F310FA03F1F7
:102150000AD0C3F11D0303F580634FEA41504FEAF3
:10216000035202EBD12170474FF00000704700008E
:10217000DFF848C170B51CEA111E1EBF1CEA13151A
:102180009EEA0C0F95EA0C0F00F06F8081EA0304C1
:1021900023EA4C134EEAD47E21EA4C1141F480111B
:1021A00043F48013AE44A1FB024CA0FB0365AEF1E7
:1021B0007F7E361955EB0C05A1FB034C4CF1000357
:1021C000A0FB021C16EB0C06654153F1000309420B
:1021D00018BF46F0010613F4007F0BD14FEA03311C
:1021E0004FEA0530340341EA155140EA16506FF0CA
:1021F00003020AE04FEAC3214FEAC520F40241EA94
:10220000555140EA56506FF0020202EB2E4201EBAC
:10221000025585EACE710AD05FEA440C18BF24F05B
:10222000004450F1000041F1000120EAD47040F276
:10223000FE7C624500D270BDA84214BF4FF08044BE
:102240004FF04044002E08BF0024BEF1806FA8BFAD
:10225000A1F1C041BDE8704080F282804FF00000E3
:1022600001F1C04101F0004170479EEA0C0F0CEAF9
:10227000131518BF95EA0C0F06D04FF0000081EA45
:10228000030E0EF0004170BD00F01CF88900013E05
:1022900000F007B800F009B84FEA430C5FEA5C5C55
:1022A00008D081EA030100F05BB84FEA410C5FEA15
:1022B0005C5CF6D14FF00000014970470000FF0759
:1022C0000000F87F0EF1020E2EF0030E5EF8046B94
:1022D000364205D4012A43EB030515F5001F12D839
:1022E000012841EB010C1CF5001F0CD80ED14FEA60
:1022F000D17C15F5001F0CEB4C0C0CF1020C08BF47
:102300004CEBD37C04E04FF0080C01E04FEAD37CA7
:102310000CEB4C0526FA05F606F00706B6F1040CA0
:1023200006D20EEB860CBDE870404CF0010C604705
:10233000DFE80CF0090B02024FF000414FF0000003
:10234000A1F5002170BD19461046012851EB01048A
:1023500018BFD4F5001484BF002001F0004170BD07
:102360000808A0F500114FEA3101704710B591EA55
:10237000030F48BF83F000433FF5EEAC841A71EBC6
:10238000030C07D212198CF0004C43EB0C03001B1A
:1023900061EB0C01DFF8A4E14FEA1154A4EB135CEC
:1023A0001EEA430F18BF9EEA445F00F0B08023EAA4
:1023B0006E03524221EA0451C3EB6E0338BF5B1E29
:1023C000DCF1200E25D322FA0CFE10EB0E0043FAAE
:1023D0000CFE41EB0E01CCF1200E03FA0EFE10EBC9
:1023E0000E0051F10001CCF1200E29D412FA0EF2A8
:1023F00001EB0451BDE8104058BF7047401C1CBFA2
:10240000B2F1004F704700280CBF491C20F00100BA
:10241000704712EB020E43EB030218BF4FF0010EA0
:102420004EEA4202ACF1200CDCF11E0E54D943FA04
:102430000CFE10EB0E0051F1FF31CCF11E0ED5D584
:102440000EF1010E12FA0EFE404141EB010101EBCB
:10245000445C5FEA5C5C10D910EBDE7001EB045168
:1024600038BFBEF1004FBDE8104018BF70470028CC
:102470000CBF491C20F00100704730D24FEAD42C29
:1024800011F5001124F400641BD0B1FA81F20B3A6B
:10249000A41AA41ED2F12003914030FA03F3194389
:1024A000904001EBCC71002C01EB0451BDE81040D1
:1024B000A8BF704701F1C0414FF0000001F000419A
:1024C0007047B0FA80F310FA03F100D110BDE41A9E
:1024D000173C4805C90AE4E701EB045110BD491057
:1024E00001EB0451BDE810404FEA300002E04FF02C
:1024F000000170474A0008BF0042F8D0B2F5001F43
:1025000028BF704701F000414FF0000070479EEA7D
:10251000445F07D011EA5E0FBDE8104004BF002100
:1025200000207047BDE8104070B5FFF7CBFE00BF3C
:1025300040DFF63E83F00041104670470000E0FFA8
:1025400041000B0ED3F19E0208D950F400034FEA6C
:10255000032323FA02F048BF4042704710B500F051
:102560000AF800BF49922480002070476FF00042B3
:1025700082EA200070470EF1020E2EF0030E5EF884
:10258000044B244204D44FEA4102B2F17F4F11D8E8
:102590004FEA4003B3F17F4F0CD80ED14FEAD07C05
:1025A000B2F17F4F0CEB4C0C0CF1020C08BF4CEB62
:1025B000D17C04E04FF0080C01E04FEAD17C0CEB39
:1025C0004C0324FA03F404F00704B4F1040C06D21B
:1025D0000EEB840CBDE810404CF0010C6047DFE8C6
:1025E0000CF0070802024FF00040A0F5800010BD7B
:1025F0000846420018BFD2F1807288BF00F0004048
:1026000010BDFF2141EAD050C0057047010202030E
:102610000405060708090A0B0C0D0E0F1010010225
:1026200002030405060708090A0B0C0D0E0F101013
:102630000000000000000000010203040607080972
:1026400000000000010203046826000800000020CA
:10265000180000002801000880260008180000204B
:10266000E80600004401000800004842460000005F
:102670000100000010000000000000000024F40031
:04000005080000ED02
:00000001FF
